:1000000000308A0004280000840183131F30830518
:1000100083161F149F141F159F1107309C00FF307B
:100020008312A00083161F149F141F159F118312A3
:100030001F108316091283129412A012200883162F
:100040008700831220162008831687008312A011D0
:100050002008831687000130831294000030831635
:1000600094000108C73908388100831290010030DC
:10007000F800920000308316920007309C000508BB
:100080001030F700F70B422800001C0883120D13F4
:1000900083169D0108148312081C53288316061228
:1000A0008312061657288316061283120612831629
:0400B0004A28630077
:02400E003A3F37
:00000001FF
;PIC16F877A
